{
  "_format": "hh-sol-artifact-1",
  "contractName": "Calend3",
  "sourceName": "contracts/Calend3.sol",
  "abi": [
    {
      "inputs": [
        {
          "internalType": "uint256",
          "name": "_rate",
          "type": "uint256"
        }
      ],
      "stateMutability": "nonpayable",
      "type": "constructor"
    },
    {
      "anonymous": false,
      "inputs": [
        {
          "components": [
            {
              "internalType": "string",
              "name": "title",
              "type": "string"
            },
            {
              "internalType": "address",
              "name": "attendee",
              "type": "address"
            },
            {
              "internalType": "uint256",
              "name": "startTime",
              "type": "uint256"
            },
            {
              "internalType": "uint256",
              "name": "endTime",
              "type": "uint256"
            },
            {
              "internalType": "uint256",
              "name": "amountPaid",
              "type": "uint256"
            },
            {
              "internalType": "string",
              "name": "notes",
              "type": "string"
            },
            {
              "internalType": "string",
              "name": "costs",
              "type": "string"
            }
          ],
          "indexed": false,
          "internalType": "struct Calend3.Appointment",
          "name": "_appointment",
          "type": "tuple"
        }
      ],
      "name": "Booking",
      "type": "event"
    },
    {
      "anonymous": false,
      "inputs": [
        {
          "indexed": true,
          "internalType": "address",
          "name": "_sender",
          "type": "address"
        },
        {
          "indexed": true,
          "internalType": "address",
          "name": "_owner",
          "type": "address"
        },
        {
          "indexed": false,
          "internalType": "uint256",
          "name": "_amount",
          "type": "uint256"
        }
      ],
      "name": "Deposit",
      "type": "event"
    },
    {
      "inputs": [
        {
          "internalType": "string",
          "name": "_title",
          "type": "string"
        },
        {
          "internalType": "uint256",
          "name": "_startTime",
          "type": "uint256"
        },
        {
          "internalType": "uint256",
          "name": "_endTime",
          "type": "uint256"
        },
        {
          "internalType": "string",
          "name": "_notes",
          "type": "string"
        },
        {
          "internalType": "string",
          "name": "costs",
          "type": "string"
        }
      ],
      "name": "createAppointment",
      "outputs": [
        {
          "components": [
            {
              "internalType": "string",
              "name": "title",
              "type": "string"
            },
            {
              "internalType": "address",
              "name": "attendee",
              "type": "address"
            },
            {
              "internalType": "uint256",
              "name": "startTime",
              "type": "uint256"
            },
            {
              "internalType": "uint256",
              "name": "endTime",
              "type": "uint256"
            },
            {
              "internalType": "uint256",
              "name": "amountPaid",
              "type": "uint256"
            },
            {
              "internalType": "string",
              "name": "notes",
              "type": "string"
            },
            {
              "internalType": "string",
              "name": "costs",
              "type": "string"
            }
          ],
          "internalType": "struct Calend3.Appointment",
          "name": "",
          "type": "tuple"
        }
      ],
      "stateMutability": "payable",
      "type": "function"
    },
    {
      "inputs": [],
      "name": "getAppointments",
      "outputs": [
        {
          "components": [
            {
              "internalType": "string",
              "name": "title",
              "type": "string"
            },
            {
              "internalType": "address",
              "name": "attendee",
              "type": "address"
            },
            {
              "internalType": "uint256",
              "name": "startTime",
              "type": "uint256"
            },
            {
              "internalType": "uint256",
              "name": "endTime",
              "type": "uint256"
            },
            {
              "internalType": "uint256",
              "name": "amountPaid",
              "type": "uint256"
            },
            {
              "internalType": "string",
              "name": "notes",
              "type": "string"
            },
            {
              "internalType": "string",
              "name": "costs",
              "type": "string"
            }
          ],
          "internalType": "struct Calend3.Appointment[]",
          "name": "",
          "type": "tuple[]"
        }
      ],
      "stateMutability": "view",
      "type": "function"
    },
    {
      "inputs": [],
      "name": "getRate",
      "outputs": [
        {
          "internalType": "uint256",
          "name": "",
          "type": "uint256"
        }
      ],
      "stateMutability": "view",
      "type": "function"
    },
    {
      "inputs": [
        {
          "internalType": "uint256",
          "name": "_minutes",
          "type": "uint256"
        }
      ],
      "name": "getRatePer",
      "outputs": [
        {
          "internalType": "uint256",
          "name": "",
          "type": "uint256"
        }
      ],
      "stateMutability": "view",
      "type": "function"
    },
    {
      "inputs": [],
      "name": "getRatePerHour",
      "outputs": [
        {
          "internalType": "uint256",
          "name": "",
          "type": "uint256"
        }
      ],
      "stateMutability": "view",
      "type": "function"
    },
    {
      "inputs": [],
      "name": "owner",
      "outputs": [
        {
          "internalType": "address payable",
          "name": "",
          "type": "address"
        }
      ],
      "stateMutability": "view",
      "type": "function"
    },
    {
      "inputs": [
        {
          "internalType": "uint256",
          "name": "_rate",
          "type": "uint256"
        }
      ],
      "name": "setRate",
      "outputs": [],
      "stateMutability": "nonpayable",
      "type": "function"
    }
  ],
  "bytecode": "0x608060405260016000553480156200001657600080fd5b50604051620022ec380380620022ec83398181016040528101906200003c9190620000a2565b33600160006101000a81548173ffffffffffffffffffffffffffffffffffffffff021916908373ffffffffffffffffffffffffffffffffffffffff1602179055508060008190555050620000f2565b6000815190506200009c81620000d8565b92915050565b600060208284031215620000b557600080fd5b6000620000c5848285016200008b565b91505092915050565b6000819050919050565b620000e381620000ce565b8114620000ef57600080fd5b50565b6121ea80620001026000396000f3fe6080604052600436106100705760003560e01c8063740725ae1161004e578063740725ae146101065780637f56ed2b146101315780638da5cb5b1461016157806396b80d081461018c57610070565b806334fcf437146100755780634b95c9b91461009e578063679aefce146100db575b600080fd5b34801561008157600080fd5b5061009c600480360381019061009791906114b9565b6101b7565b005b3480156100aa57600080fd5b506100c560048036038101906100c091906114b9565b610251565b6040516100d29190611aa8565b60405180910390f35b3480156100e757600080fd5b506100f0610268565b6040516100fd9190611aa8565b60405180910390f35b34801561011257600080fd5b5061011b610271565b6040516101289190611aa8565b60405180910390f35b61014b600480360381019061014691906113fa565b610282565b6040516101589190611a86565b60405180910390f35b34801561016d57600080fd5b50610176610e2b565b6040516101839190611947565b60405180910390f35b34801561019857600080fd5b506101a1610e51565b6040516101ae9190611962565b60405180910390f35b600160009054906101000a900473ffffffffffffffffffffffffffffffffffffffff1673ffffffffffffffffffffffffffffffffffffffff163373ffffffffffffffffffffffffffffffffffffffff1614610247576040517f08c379a000000000000000000000000000000000000000000000000000000000815260040161023e90611a06565b60405180910390fd5b8060008190555050565b6000816000546102619190611c1c565b9050919050565b60008054905090565b600061027d603c610251565b905090565b61028a611287565b600034905060008054878761029f9190611c76565b6102a99190611c1c565b90508587106102ed576040517f08c379a00000000000000000000000000000000000000000000000000000000081526004016102e4906119e6565b60405180910390fd5b8082101561040d5760006040518060400160405280601a81526020017f596f75206e65656420746f20706179206174206c656173743a20000000000000815250610336836110da565b6040518060400160405280601481526020017f2c20796f7520747269656420746f207061793a20000000000000000000000000815250610375866110da565b6040518060400160405280600481526020017f20574549000000000000000000000000000000000000000000000000000000008152506040516020016103bf9594939291906118e7565b6040516020818303038152906040529050806040517f08c379a00000000000000000000000000000000000000000000000000000000081526004016104049190611984565b60405180910390fd5b808211801561042757506002816104249190611c1c565b82105b1561043157610517565b60028161043e9190611c1c565b82111561051657600060405180608001604052806041815260200161217460419139610480836064866104719190611c1c565b61047b9190611beb565b6110da565b6040518060400160405280600181526020017f25000000000000000000000000000000000000000000000000000000000000008152506040516020016104c8939291906118b6565b6040516020818303038152906040529050806040517f08c379a000000000000000000000000000000000000000000000000000000000815260040161050d9190611984565b60405180910390fd5b5b60005b6002805490508110156109515760028181548110610561577f4e487b7100000000000000000000000000000000000000000000000000000000600052603260045260246000fd5b906000526020600020906007020160020154881080156105cb5750600281815481106105b6577f4e487b7100000000000000000000000000000000000000000000000000000000600052603260045260246000fd5b90600052602060002090600702016002015487115b1561060b576040517f08c379a000000000000000000000000000000000000000000000000000000000815260040161060290611a66565b60405180910390fd5b60028181548110610645577f4e487b7100000000000000000000000000000000000000000000000000000000600052603260045260246000fd5b906000526020600020906007020160030154881080156106af57506002818154811061069a577f4e487b7100000000000000000000000000000000000000000000000000000000600052603260045260246000fd5b90600052602060002090600702016003015487115b156106ef576040517f08c379a00000000000000000000000000000000000000000000000000000000081526004016106e6906119a6565b60405180910390fd5b60028181548110610729577f4e487b7100000000000000000000000000000000000000000000000000000000600052603260045260246000fd5b9060005260206000209060070201600201548811801561079357506002818154811061077e577f4e487b7100000000000000000000000000000000000000000000000000000000600052603260045260246000fd5b90600052602060002090600702016003015487105b156107d3576040517f08c379a00000000000000000000000000000000000000000000000000000000081526004016107ca90611a46565b60405180910390fd5b6002818154811061080d577f4e487b7100000000000000000000000000000000000000000000000000000000600052603260045260246000fd5b90600052602060002090600702016002015488148015610877575060028181548110610862577f4e487b7100000000000000000000000000000000000000000000000000000000600052603260045260246000fd5b90600052602060002090600702016003015487145b156108b7576040517f08c379a00000000000000000000000000000000000000000000000000000000081526004016108ae90611a26565b60405180910390fd5b600160009054906101000a900473ffffffffffffffffffffffffffffffffffffffff1673ffffffffffffffffffffffffffffffffffffffff163373ffffffffffffffffffffffffffffffffffffffff167f5548c837ab068cf56a2c2479df0882a4922fd203edb7517321831d95078c5f62346040516109369190611aa8565b60405180910390a3808061094990611d9d565b91505061051a565b506000600160009054906101000a900473ffffffffffffffffffffffffffffffffffffffff1673ffffffffffffffffffffffffffffffffffffffff163460405161099a90611932565b60006040518083038185875af1925050503d80600081146109d7576040519150601f19603f3d011682016040523d82523d6000602084013e6109dc565b606091505b5050905080610a20576040517f08c379a0000000000000000000000000000000000000000000000000000000008152600401610a17906119c6565b60405180910390fd5b60006040518060e001604052808b81526020013373ffffffffffffffffffffffffffffffffffffffff1681526020018a815260200189815260200185815260200188815260200187815250905060028190806001815401808255809150506001900390600052602060002090600702016000909190919091506000820151816000019080519060200190610ab59291906112da565b5060208201518160010160006101000a81548173ffffffffffffffffffffffffffffffffffffffff021916908373ffffffffffffffffffffffffffffffffffffffff16021790555060408201518160020155606082015181600301556080820151816004015560a0820151816005019080519060200190610b379291906112da565b5060c0820151816006019080519060200190610b549291906112da565b5050507f4a7ba6df65cced15868ec08f84ede05d0d66456a925771ac5c4a00db85ca432f81604051610b869190611a86565b60405180910390a160026001600280549050610ba29190611c76565b81548110610bd9577f4e487b7100000000000000000000000000000000000000000000000000000000600052603260045260246000fd5b90600052602060002090600702016040518060e0016040529081600082018054610c0290611d3a565b80601f0160208091040260200160405190810160405280929190818152602001828054610c2e90611d3a565b8015610c7b5780601f10610c5057610100808354040283529160200191610c7b565b820191906000526020600020905b815481529060010190602001808311610c5e57829003601f168201915b505050505081526020016001820160009054906101000a900473ffffffffffffffffffffffffffffffffffffffff1673ffffffffffffffffffffffffffffffffffffffff1673ffffffffffffffffffffffffffffffffffffffff168152602001600282015481526020016003820154815260200160048201548152602001600582018054610d0890611d3a565b80601f0160208091040260200160405190810160405280929190818152602001828054610d3490611d3a565b8015610d815780601f10610d5657610100808354040283529160200191610d81565b820191906000526020600020905b815481529060010190602001808311610d6457829003601f168201915b50505050508152602001600682018054610d9a90611d3a565b80601f0160208091040260200160405190810160405280929190818152602001828054610dc690611d3a565b8015610e135780601f10610de857610100808354040283529160200191610e13565b820191906000526020600020905b815481529060010190602001808311610df657829003601f168201915b50505050508152505094505050505095945050505050565b600160009054906101000a900473ffffffffffffffffffffffffffffffffffffffff1681565b60606002805480602002602001604051908101604052809291908181526020016000905b828210156110d157838290600052602060002090600702016040518060e0016040529081600082018054610ea890611d3a565b80601f0160208091040260200160405190810160405280929190818152602001828054610ed490611d3a565b8015610f215780601f10610ef657610100808354040283529160200191610f21565b820191906000526020600020905b815481529060010190602001808311610f0457829003601f168201915b505050505081526020016001820160009054906101000a900473ffffffffffffffffffffffffffffffffffffffff1673ffffffffffffffffffffffffffffffffffffffff1673ffffffffffffffffffffffffffffffffffffffff168152602001600282015481526020016003820154815260200160048201548152602001600582018054610fae90611d3a565b80601f0160208091040260200160405190810160405280929190818152602001828054610fda90611d3a565b80156110275780601f10610ffc57610100808354040283529160200191611027565b820191906000526020600020905b81548152906001019060200180831161100a57829003601f168201915b5050505050815260200160068201805461104090611d3a565b80601f016020809104026020016040519081016040528092919081815260200182805461106c90611d3a565b80156110b95780601f1061108e576101008083540402835291602001916110b9565b820191906000526020600020905b81548152906001019060200180831161109c57829003601f168201915b50505050508152505081526020019060010190610e75565b50505050905090565b60606000821415611122576040518060400160405280600181526020017f30000000000000000000000000000000000000000000000000000000000000008152509050611282565b600082905060005b6000821461115457808061113d90611d9d565b915050600a8261114d9190611beb565b915061112a565b60008167ffffffffffffffff811115611196577f4e487b7100000000000000000000000000000000000000000000000000000000600052604160045260246000fd5b6040519080825280601f01601f1916602001820160405280156111c85781602001600182028036833780820191505090505b5090505b6000851461127b576001826111e19190611c76565b9150600a856111f09190611de6565b60306111fc9190611b95565b60f81b818381518110611238577f4e487b7100000000000000000000000000000000000000000000000000000000600052603260045260246000fd5b60200101907effffffffffffffffffffffffffffffffffffffffffffffffffffffffffffff1916908160001a905350600a856112749190611beb565b94506111cc565b8093505050505b919050565b6040518060e0016040528060608152602001600073ffffffffffffffffffffffffffffffffffffffff16815260200160008152602001600081526020016000815260200160608152602001606081525090565b8280546112e690611d3a565b90600052602060002090601f016020900481019282611308576000855561134f565b82601f1061132157805160ff191683800117855561134f565b8280016001018555821561134f579182015b8281111561134e578251825591602001919060010190611333565b5b50905061135c9190611360565b5090565b5b80821115611379576000816000905550600101611361565b5090565b600061139061138b84611ae8565b611ac3565b9050828152602081018484840111156113a857600080fd5b6113b3848285611cf8565b509392505050565b600082601f8301126113cc57600080fd5b81356113dc84826020860161137d565b91505092915050565b6000813590506113f48161215c565b92915050565b600080600080600060a0868803121561141257600080fd5b600086013567ffffffffffffffff81111561142c57600080fd5b611438888289016113bb565b9550506020611449888289016113e5565b945050604061145a888289016113e5565b935050606086013567ffffffffffffffff81111561147757600080fd5b611483888289016113bb565b925050608086013567ffffffffffffffff8111156114a057600080fd5b6114ac888289016113bb565b9150509295509295909350565b6000602082840312156114cb57600080fd5b60006114d9848285016113e5565b91505092915050565b60006114ee8383611744565b905092915050565b6114ff81611cbc565b82525050565b61150e81611caa565b82525050565b600061151f82611b29565b6115298185611b57565b93508360208202850161153b85611b19565b8060005b85811015611577578484038952815161155885826114e2565b945061156383611b4a565b925060208a0199505060018101905061153f565b50829750879550505050505092915050565b600061159482611b34565b61159e8185611b68565b93506115ae818560208601611d07565b80840191505092915050565b60006115c582611b3f565b6115cf8185611b73565b93506115df818560208601611d07565b6115e881611ed3565b840191505092915050565b60006115fe82611b3f565b6116088185611b84565b9350611618818560208601611d07565b61162181611ed3565b840191505092915050565b6000611639604483611b84565b915061164482611ee4565b606082019050919050565b600061165c601d83611b84565b915061166782611f59565b602082019050919050565b600061167f602283611b84565b915061168a82611f82565b604082019050919050565b60006116a2601a83611b84565b91506116ad82611fd1565b602082019050919050565b60006116c5605483611b84565b91506116d082611ffa565b606082019050919050565b60006116e8605c83611b84565b91506116f38261206f565b606082019050919050565b600061170b600083611b68565b9150611716826120e4565b600082019050919050565b600061172e604683611b84565b9150611739826120e7565b606082019050919050565b600060e083016000830151848203600086015261176182826115ba565b91505060208301516117766020860182611505565b5060408301516117896040860182611898565b50606083015161179c6060860182611898565b5060808301516117af6080860182611898565b5060a083015184820360a08601526117c782826115ba565b91505060c083015184820360c08601526117e182826115ba565b9150508091505092915050565b600060e083016000830151848203600086015261180b82826115ba565b91505060208301516118206020860182611505565b5060408301516118336040860182611898565b5060608301516118466060860182611898565b5060808301516118596080860182611898565b5060a083015184820360a086015261187182826115ba565b91505060c083015184820360c086015261188b82826115ba565b9150508091505092915050565b6118a181611cee565b82525050565b6118b081611cee565b82525050565b60006118c28286611589565b91506118ce8285611589565b91506118da8284611589565b9150819050949350505050565b60006118f38288611589565b91506118ff8287611589565b915061190b8286611589565b91506119178285611589565b91506119238284611589565b91508190509695505050505050565b600061193d826116fe565b9150819050919050565b600060208201905061195c60008301846114f6565b92915050565b6000602082019050818103600083015261197c8184611514565b905092915050565b6000602082019050818103600083015261199e81846115f3565b905092915050565b600060208201905081810360008301526119bf8161162c565b9050919050565b600060208201905081810360008301526119df8161164f565b9050919050565b600060208201905081810360008301526119ff81611672565b9050919050565b60006020820190508181036000830152611a1f81611695565b9050919050565b60006020820190508181036000830152611a3f816116b8565b9050919050565b60006020820190508181036000830152611a5f816116db565b9050919050565b60006020820190508181036000830152611a7f81611721565b9050919050565b60006020820190508181036000830152611aa081846117ee565b905092915050565b6000602082019050611abd60008301846118a7565b92915050565b6000611acd611ade565b9050611ad98282611d6c565b919050565b6000604051905090565b600067ffffffffffffffff821115611b0357611b02611ea4565b5b611b0c82611ed3565b9050602081019050919050565b6000819050602082019050919050565b600081519050919050565b600081519050919050565b600081519050919050565b6000602082019050919050565b600082825260208201905092915050565b600081905092915050565b600082825260208201905092915050565b600082825260208201905092915050565b6000611ba082611cee565b9150611bab83611cee565b9250827fffffffffffffffffffffffffffffffffffffffffffffffffffffffffffffffff03821115611be057611bdf611e17565b5b828201905092915050565b6000611bf682611cee565b9150611c0183611cee565b925082611c1157611c10611e46565b5b828204905092915050565b6000611c2782611cee565b9150611c3283611cee565b9250817fffffffffffffffffffffffffffffffffffffffffffffffffffffffffffffffff0483118215151615611c6b57611c6a611e17565b5b828202905092915050565b6000611c8182611cee565b9150611c8c83611cee565b925082821015611c9f57611c9e611e17565b5b828203905092915050565b6000611cb582611cce565b9050919050565b6000611cc782611cce565b9050919050565b600073ffffffffffffffffffffffffffffffffffffffff82169050919050565b6000819050919050565b82818337600083830152505050565b60005b83811015611d25578082015181840152602081019050611d0a565b83811115611d34576000848401525b50505050565b60006002820490506001821680611d5257607f821691505b60208210811415611d6657611d65611e75565b5b50919050565b611d7582611ed3565b810181811067ffffffffffffffff82111715611d9457611d93611ea4565b5b80604052505050565b6000611da882611cee565b91507fffffffffffffffffffffffffffffffffffffffffffffffffffffffffffffffff821415611ddb57611dda611e17565b5b600182019050919050565b6000611df182611cee565b9150611dfc83611cee565b925082611e0c57611e0b611e46565b5b828206905092915050565b7f4e487b7100000000000000000000000000000000000000000000000000000000600052601160045260246000fd5b7f4e487b7100000000000000000000000000000000000000000000000000000000600052601260045260246000fd5b7f4e487b7100000000000000000000000000000000000000000000000000000000600052602260045260246000fd5b7f4e487b7100000000000000000000000000000000000000000000000000000000600052604160045260246000fd5b6000601f19601f8301169050919050565b7f4e6577206170706f696e746d656e742072657175657374206f7665726c61707360008201527f20656e64206f6620616c7265616479206578697374696e67206170706f696e7460208201527f6d656e7400000000000000000000000000000000000000000000000000000000604082015250565b7f4661696c656420746f2073656e64206d6f6e657920746f206f776e6572000000600082015250565b7f73746172742074696d65206d757374206265206265666f726520656e6420746960008201527f6d65000000000000000000000000000000000000000000000000000000000000602082015250565b7f4f6e6c79206f776e65722063616e206368616e67652072617465000000000000600082015250565b7f4e6577206170706f696e746d656e74207265717565737420737461727473206160008201527f6e6420656e64732065786163746c79207769746820616e206578697374696e6760208201527f20616c7265616479206170706f696e746d656e74000000000000000000000000604082015250565b7f4e6577206170706f696e746d656e742072657175657374206f7665726c61707360008201527f2061732066616c6c732077697468696e207468652074696d65206f6620616e2060208201527f616c7265616479206578697374696e67206170706f696e746d656e7400000000604082015250565b50565b7f4e6577206170706f696e746d656e742072657175657374206f7665726c61707360008201527f207374617274206f6620616c7265616479206578697374696e67206170706f6960208201527f6e746d656e740000000000000000000000000000000000000000000000000000604082015250565b61216581611cee565b811461217057600080fd5b5056fe596f7520706179656420746f206d7563682c207061796d656e742063616e6e6f742063616e6e6f742065786365656420323030252c20796f752070617965643a20a2646970667358221220287771cbd7d8e658ce1cc4564d083dd46779bd7b7bb6fdc69e9a8017127e142664736f6c63430008040033",
  "linkReferences": {},
  "deployedLinkReferences": {}
}